:020000040800F2
:10000000C808002085020008890200088B02000849
:100010008D0200088F020008910200080000000015
:100020000000000000000000000000009302000833
:1000300095020008000000009702000899020008DD
:100040009B0200089B0200089B0200089B0200081C
:100050009B0200089B0200089B0200089B0200080C
:100060009B0200089B0200089B0200089B020008FC
:100070009B0200089B0200089B0200089B020008EC
:100080009B0200089B0200089B0200089B020008DC
:100090009B0200089B0200089B0200089B020008CC
:1000A0009B0200089B0200089B0200089B020008BC
:1000B0009B0200089B020008471100089B020008F1
:1000C0009B0200089B0200089B0200089B0200089C
:1000D0009B020008FF0700085D0F00089B02000854
:1000E0009B0200089B0200089B0200089B0200087C
:1000F0009B0200089B0200089B0200089B0200086C
:100100009B0200089B0200089B0200089B0200085B
:100110009B0200089B0200089B0200089B0200084B
:100120009B0200089B0200089B0200089B0200083B
:1001300000F002F800F090F80AA090E8000C824469
:100140008344AAF10107DA4501D100F085F8AFF246
:10015000090EBAE80F0013F0010F18BFFB1A43F0A5
:1001600001031847A82C0000C82C0000103A24BF37
:1001700078C878C1FAD8520724BF30C830C144BF0C
:1001800004680C607047000000230024002500264E
:10019000103A28BF78C1FBD8520728BF30C148BFEA
:1001A0000B6070476E2901F0DF81702901F04783F1
:1001B000662902F0BE85652902F0BB85672902F039
:1001C000B8856129AFF3008003681B0A28BF41F09E
:1001D0008001692901F08E81642901F08B817529E4
:1001E00001F088816F2901F0D582782901F013830D
:1001F000E92901F07182E42901F06E82F52901F00C
:100200006B82EF2901F0D282F82901F01283036892
:10021000DB0928BF41F08001632901F0E0817329E7
:1002200001F0E581E32901F0C885F32901F0CD85CE
:10023000002070471FB501F01DFE040000200021C2
:1002400002F0BEFA401C60600020002102F0A2FA19
:10025000E0601FBD10B510BD01F0DFFD1146FFF7D6
:10026000E9FF00F06EF801F0B5FE03B4FFF7F2FF0E
:1002700003BC00F0B5FA000030BF72B662B680F37E
:100280000888704708480047FEE7FEE7FEE7FEE7FC
:10029000FEE7FEE7FEE7FEE7FEE7FEE70348044968
:1002A000044A054B7047000031010008C8020020D5
:1002B000C8080020C8040020C804002010B500248D
:1002C0003CE06048008800F4004068B15D48047874
:1002D00000205D4908555DA15B4801F08DF800B92B
:1002E0002DE00020574908805948006801280DD1A9
:1002F0005748001D006848B940F28331642000F07F
:1003000059FC4FF4FA7000F0EDF817E05048001D6A
:10031000006801280CD14E48006848B94FF4967126
:10032000480000F05CFC4FF4FA7000F0DBF805E0E8
:100330004FF416714FF4C87000F027FCC1E700BFFE
:1003400010BD0024092000F0F2F9482000F092F8D6
:1003500000F008FB00F02EFB002140F2833000F09B
:10036000C1FB00F07FFC4FF41651482000F082FAE8
:1003700000F09CFC65E03348008800F40040002851
:100380005FD03048047800202F49085531A12E480D
:1003900001F032F808B9FFF791FF2FA12A4801F0C8
:1003A0002BF858B92D480068C0432D49C1F8880181
:1003B00040F283314FF4E17000F0E7FB29A12248BD
:1003C00001F01AF858B925480068C0432449C1F81B
:1003D000880140F283314FF4FA7000F015FC22A13D
:1003E000194801F009F858B91C480068C0431C4975
:1003F000C1F8880140F283314FF4967000F0DAFBC7
:100400001AA1114800F0F8FF58B914480068C04319
:100410001349C1F888014FF496714FF4C87000F089
:10042000DEFB13A1084800F0E7FF38B90B4800686D
:10043000C0430B49C1F8880100F0FBFB00200149D3
:10044000088098E70C000020A00100204F00000069
:1004500030012142580000004600000088812242FD
:1004600000802242420000004C00000052000000C8
:10047000530000004FF0E021096921F004014FF022
:10048000E0221161C21700EB5272C2F3C702234B84
:100490001A701946097801EB4102C2EBC1114FF6FF
:1004A000FF7202EAC1011E4A1180704701461B4AD1
:1004B00012784A434FF0E0235A6100229A610122E8
:1004C0001A6100BF4FF0E022106900F001021AB17A
:1004D00000F48032002AF5D000224FF0E0231A61A8
:1004E0009A61704701460E4A12884A434FF0E02352
:1004F0005A6100229A6101221A6100BF4FF0E02286
:10050000106900F001021AB100F48032002AF5D01F
:1005100000224FF0E0231A619A617047000000202A
:1005200002000020A34A0A400243A34B1A6070470E
:100530000146072323EA010212029F4B1B1D186884
:100540004FF6FF0318409D4B184310439A4B1B1D59
:10055000186070472DE9F0410746884614461D464D
:100560002846FFF7E5FFC5F1040007FA00F60F2063
:10057000284100EA0800064306F00F06E21704EBE4
:10058000D2625211920002F1E022D2F800212146FB
:10059000E31704EBD3635B11A4EB431C012303FAC1
:1005A0000CF31A432046E31704EBD3635B119B0063
:1005B00003F1E023C3F800218148005D40EA061002
:1005C0007F490855BDE8F08170B504460B46CE174B
:1005D00001EB9676C6F38700CE1701EB9676B61040
:1005E000A1EB8606B606350E764B9B6943F00103F8
:1005F000744EB3614FEAB63353F820300F26AE4045
:10060000B343714E46F82030334653F8203004FA95
:1006100005F61E436C4B43F820606C4B1B680126AB
:100620008E403343694E336002F0010343B1674BA0
:100630000C331B6801268E403343644E0C36336006
:1006400002F0020343B1614B08331E6801238B4063
:100650001E435E4B08331E6070BD00B50020594933
:100660000861C8601420486100208861C86108469C
:10067000006840F00100086008464068544908409E
:100680005049486008460068524908404D49086092
:100690000846006820F4802008600846406820F47E
:1006A000FE0048600020886000214FF00060FFF7E6
:1006B00039FF00BD10B540480830006840F0040024
:1006C0003D49083108603F48C06940F080503D49CD
:1006D000C8614148406840F480703F49486008461E
:1006E000006840F0040008600846006840F002001E
:1006F0000860FFF7C1FD10BD3048001D2E49091DDF
:1007000008607047014649062E4A926942F001028C
:100710002C4B9A612C4A083A526822F0E0622A4B2C
:10072000083B5A601A4652680A435A60704730B50F
:1007300004460025FFF791FF2248006840F480300E
:100740002049086000BF1F480068400C0028FAD00C
:100750004FF480601B494860A01EC4B20846406840
:1007600040EA844048600846406840F48030486071
:100770001A48006840F032001849086011480068C3
:1007800040F080700F49086000BF0E480068400EBE
:100790000028FAD00B48406840F002000949486040
:1007A00005E008484068C0F3870505F00305022D01
:1007B000F7D130BD80FFFF1F08ED00E00000FA0513
:1007C00000E400E000100240080001400004014085
:1007D0000000FFF8FFFFF6FE00700040002002401E
:1007E000014600BF704700BF584A128802F040021D
:1007F000002AF9D0C2B2554B1B1D1A8070475349CD
:10080000098801F0200111B35049091D0988C8B2B7
:100810004F49098801F40041C9B94D49098801F4DB
:10082000804161B10A2803D00021494A118020E0AB
:100830004749098841F40041454A118019E00D28D3
:1008400006D14349098841F48041414A118010E0B2
:100850003F490988C1F30D013E4A50543C4909887B
:10086000491C3B4A118011460988C72901DD002136
:10087000118070472DE9F05F05460E46300102F009
:10088000F9F88146344905FB01F002F0F3F882469D
:10089000494602F00DF80746384602F0CBF884B21C
:1008A000204602F0E7F88346394602F0C3F9824653
:1008B0004FF0834102F0F2F8814602F0BBF8804627
:1008C0004FF6FF7000EA041404EB080084B22348DA
:1008D000806940F00400214988610846806940F43D
:1008E000804088611E48006820F47F601C490860D1
:1008F0000846006840F40B6008601848C06840F47F
:1009000080401649C8600846C06820F48040C8602E
:100910000E4808300480001D008842F20C01084394
:100920000A490C3108800846008840F4807008802D
:100930000846008840F02000088002232522032179
:100940000846FFF707FEBDE8F09F000000380140B1
:10095000080000201000002040420F00001002405C
:10096000040801401048806940F004000E49886185
:100970000846806940F0200088610C48006820F03B
:100980000F000A4908600846006840F0030008604C
:100990000748006820F47060054908600846006850
:1009A00040F44070086070470010024004080140A5
:1009B0000014014010B53C48806940F004003A49F9
:1009C00088610846806940F0100088610120FFF7C7
:1009D00099FE3648006820F00F0034490860084648
:1009E000006840F008000860081D006820F07040B2
:1009F000091D08600846006840F0004008602B4868
:100A00000C30006840F4004028490C310860284848
:100A1000006820F47000264908600846006860F409
:100A2000E00008600846C06840F02000C86010BDC3
:100A300010B5044614B101201E4908701D48007805
:100A400008B31D48006838B11C48006820B11B4835
:100A50003C380068012816D10A20FFF743FD00202A
:100A6000144908701448006808B9012010BD1348E3
:100A7000006808B90220F9E710483C3800680128EE
:100A800010D10320F2E70C48006801280AD10B4876
:100A90000068012806D109483C38006810B90120D7
:100AA000044908700020E1E70010024000080140FE
:100AB000001001400A000020140122423C012142A2
:100AC0006248806940F008006049886160480068B9
:100AD00080B25F490860084600685E4908435C4987
:100AE0000860704700B503460A46FFF7E9FF57481C
:100AF000C06940F002005549C8610846806940F06D
:100B0000080088615248001F006820F0FF0050492B
:100B1000091F08600846006840F0BB0008604E48A6
:100B20000380001F02804C481038008840F4C04009
:100B30004949103908800846008840F06000088064
:100B40000846008840F4006008800846008840F0AD
:100B500008000880081D008840F48050091D0880A6
:100B60000846008840F480700880C8133A492C3940
:100B700008800846008840F00100088000BD364A21
:100B800010321080121D1180704710B503460C46BC
:100B900021461846FFF7F3FF01203049086030492D
:100BA000C1F8BC0100202D49083108602C49C1F86A
:100BB000B40110BD10B503460C4621461846FFF798
:100BC000DEFF0120254908602549C1F8BC0100204D
:100BD0002249083108602249C1F8B40110BD10B59E
:100BE00003460C4621461846FFF7C9FF01201B4962
:100BF00008601B49C1F8BC01002018490831086091
:100C00001749C1F8B40110BD10B503460C46214682
:100C10001846FFF7B4FF0120104908310860104959
:100C2000C1F8B40100200D4908600D49C1F8BC01AC
:100C300010BD00B500210846FFF7A1FF00200749BD
:100C400008600749C1F8BC0100BD00000010024067
:100C5000040C0140000022222C040040B0812142FB
:100C6000008021420F48806940F004000D498861EE
:100C70000D48006820F47F000B49086008460068B2
:100C800040F40800086008480830006840F48050CC
:100C90000549083108600846006840F400500860C3
:100CA00070470000001002400408014070B50A2699
:100CB00001258F48806940F004008D49886108460D
:100CC000806940F0100088618A48006820F4702034
:100CD000884908600846006840F40020086085489C
:100CE0000C30006840F0100082490C3108608248E6
:100CF000006820F47020804908600846006840F4CD
:100D0000403008600846C06840F01000C8604FF4EA
:100D10001651242000F096F932E00120774908604E
:100D20000A20FFF7DFFB76A000F0F1F900207649FA
:100D3000C1F8900100240AE07448008800F40040E3
:100D400000B106E00520FFF7CDFB601CC4B20A2C01
:100D5000F2DB00BF6D48008800F4004080B16B48B2
:100D60000578002069490880042D09D16848007879
:100D70004F2805D1664840784B2801D1002504E072
:100D80003000A6F10101CEB2C7D100BF06B90125DE
:100D9000284670BD70B50F2630E001205749086025
:100DA0000A20FFF79FFB5BA000F0B1F900250AE0E5
:100DB0000A20FFF797FB5548008800F4004000B177
:100DC00003E0681CC5B2142DF2DB00BF00204B49C4
:100DD00008604E48008800F4004078B14B48047821
:100DE00000204A4908800D2C08D1494800782B285A
:100DF00004D1474880793038C4B204E03000A6F10D
:100E00000101CEB2C9D100BF06B9FF24204670BD92
:100E10002DE9F04105460F272FE0012037490860F2
:100E20000A20FFF75FFB29463DA000F070F9002083
:100E30003549C1F8900100260AE03448008800F4E2
:100E4000004000B106E00520FFF74CFB701CC6B265
:100E5000142EF2DB00BF2D48008800F4004060B182
:100E60002A480478002029490880042C05D1284804
:100E700000784F2801D1002404E03800A7F10101D7
:100E8000CFB2CAD100BF07B9FF242046BDE8F08128
:100E900070B504460120194908600A20FFF722FBBB
:100EA00021461FA000F033F900260AE01748008809
:100EB00000F4004000B106E00A20FFF713FB701CAD
:100EC000C6B2322EF2DB00BF00200C4908600F488A
:100ED000008800F4004048B10C48057800200B4918
:100EE00008800B49485510A000F06CF970BD000057
:100EF0000010024000080140001001409001224211
:100F000041540D0A00000000000022420C000020A5
:100F1000A001002041542B524F4C453F0D0A0000C8
:100F200025730D0A000000000D0A25730000000063
:100F300058B10021904A11808F492439098841F025
:100F400001018D4A243A118007E08B492439098830
:100F500021F00101884A243A1180704700B5874882
:100F6000008800F02000F8B18448001D0088C3B25A
:100F700083480088C82811DA00207F49088080480B
:100F8000008810B90120FFF7D3FF7D480188008851
:100F9000401C7B4A10807B48435405E07848008819
:100FA00040F400407649088000BD70B505460C4607
:100FB0007548C06940F004007349C8616E48083044
:100FC0000580001F04806C481838008840F001003C
:100FD00069491839088068482438008840F00100C1
:100FE00065492439088002231E2203210120FFF7CE
:100FF000B1FA70BD70B504460E46154662484069A8
:1010000040F00100604948610520FFF74FFAA660F3
:10101000E56000202060206840F01000206020681B
:10102000206020682060206840F0800020602068F8
:10103000206020682060206840F480502060206894
:10104000206070BD70B505460C464F48806940F081
:1010500004004D4988614D48006820F47F404B49A9
:1010600008600846006840F40B4008604648C069C4
:1010700040F400304449C8610846006940F400303B
:1010800008610846006920F4003008614048684360
:10109000B0FBF4F0394908310880081D008842F29D
:1010A0000C01084335490C31088080203349143144
:1010B0000880384A3149091D3748FFF79BFF2F4800
:1010C0000C30008840F480702C490C3108800846B0
:1010D000008840F0200008800223262203211846C1
:1010E000FFF738FA41F61F416320FFF75EFF00204B
:1010F00023490880FFF71CFF70BD026822F001023F
:1011000002604160026842F00102026070470FB461
:1011100038B505A800901F48009A049900F040F8DF
:101120000020009000BF1C48001D00680028FAD174
:10113000184800F041F984B221461748FFF7DDFF57
:1011400038BC5DF814FB00B50B481438008800F07B
:10115000010080B10A48008840F400400849088036
:1011600005481438008820F001000349143908802C
:101170000020FFF7DDFE00BD2408004000440040D1
:101180000C000020A00100200010024000080140D7
:1011900040420F00D800002080000240704700004D
:1011A0001CB50C46064B7B4469460090204600F077
:1011B000F4F904460020694600F002FA20461CBDFE
:1011C000170400000FB4044910B503AA029800F0F8
:1011D00013FA10BC5DF814FB0400002070B50C4637
:1011E0000546012A05D02878800600D5EA69002343
:1011F00002E0012305E05B1C934202D2E05C002880
:10120000F9D1A869E618C01AA861286A18442862AA
:10121000284600F035F904E0D5E9012114F8010B66
:101220009047B442F8D3284600F040F970BD000062
:101230002DE9F05F894604464FF0000ADFF874B1EB
:10124000FB44C0F820A02046E1688847002874D0FD
:10125000252806D0D4E901219047206A401C20624D
:10126000F1E700265F462046E168884720280546CA
:1012700007DB312D05D2781910F8200C08B1064390
:10128000F1E7B00701D526F00406C4F81CA000273A
:10129000C4F818A02A2D09D0284601F074FA38B3F2
:1012A00004EB8708303DC8F8185019E059F8041BC2
:1012B000204604EB87029161E1688847012F0546CB
:1012C00018D1E069002820DA26F020061DE0D8F8C1
:1012D000180000EB800005EB40003038C8F818001B
:1012E0002046E1688847054601F04DFA0028EED116
:1012F000012F0AD02E2D08D12046E16888477F1C97
:101300000546022F46F02006C4DBA069002803DA58
:10131000404246F00106A061F00701D026F0100619
:101320006C2D0BD0682D09D04C2D39D06A2D35D0BD
:10133000742D35D07A2D33D016E038E0E1682F4691
:1013400020468847B842054609D16C2F26D04FF475
:101350008060E168064320468847054604E06C2F1C
:101360001AD04FF4807006430DB3A5F1410019283F
:1013700002D8203546F400664A46294620462660B3
:101380004E46FEF70FFF80B101280BD0F61D26F068
:10139000070000F1080956E74020E4E78020D8E77D
:1013A0000020D6E706F104094DE7284652E7206AF7
:1013B000BDE8F09FF21A000010B5431C02E010F8DF
:1013C000011B71B18107FAD14FF0013202C88C1AAA
:1013D0008C4314EAC211F9D0C01A0A0603D0C01E09
:1013E00010BDC01A10BD0A0401D0801E10BD090234
:1013F000FCD0401E10BD00004FF0013C50F8042B03
:1014000051F8043B9A4221D1A2EB0C03934313EA17
:10141000CC1317D150F8042B51F8043B9A4215D144
:10142000A2EB0C03934313EACC130BD150F8042B1B
:1014300051F8043B9A4209D1A2EB0C03934313EAFF
:10144000CC13DBD04FF00000704700BFD01A01BAB8
:10145000B1FA81F101F0180122FA01F0CB40C1F19B
:101460002001DBB2C0B2C01A2CFA01F3D11A9143A9
:1014700011EAC311E6D17047704770477047704753
:1014800070B5044685690068C10601D5302600E0C4
:101490002026C00707D070BDD4E90121304690470F
:1014A000206A401C20626D1EF6D570BD70B50446E2
:1014B00085690078C00707D170BDD4E901212020DB
:1014C0009047206A401C20626D1EF6D570BD0968E9
:1014D0004A0501D540B27047C905FCD500B2704736
:1014E00009684A0501D5C0B27047C905FCD580B26C
:1014F000704700002DE9F041064600241068752968
:10150000314615A510D0FFF7E2FF002802DA40426D
:1015100012A507E031688A0701D511A502E0490745
:1015200004D510A5012401E0FFF7DAFF00210A230A
:1015300006F1240707E0B0FBF3F203FB12003030A2
:1015400078541046491C0028F5D123462A463046D7
:10155000BDE8F04100F0C3B9000000002D0000001C
:101560002B0000002000000011680268006A53058B
:1015700001D508700AE0D30501D5088006E01306FE
:1015800003D5C217C1E9000200E0086001207047DE
:1015900001694A1C02610878704700B58FB0CDE937
:1015A00001310021059105497944CDE90310114627
:1015B0006846FFF73DFE0FB000BD0000E5FFFFFFEE
:1015C0000A6802F8010B0A60704710B5436913B14D
:1015D000AFF3008001E0FFF701FE012010BD12789B
:1015E00000F124010A7000224A700122EDE711681F
:1015F0004FF0FF32E9E70000074B70B50D467B4422
:10160000FFF7CBFF0446284600F0E3FB10B14FF094
:10161000FF3070BD204670BDE5F1FFFF2DE9FF5F93
:1016200015468A460446DFF8AC80F8440027D8E91E
:1016300000103E46CDE9001010E03AF816106A4658
:1016400002A800F0CAFB411C07D02178890603D507
:10165000E269391891420DD80744761C207880063B
:1016600002D5E069B84205DDAE42E6DB3AF8160085
:101670000028E2D1A069C01BA0612046FFF700FF4F
:10168000D8E90010CDE90010002017E03AF8181052
:101690006A4602A800F0A1FBB0F1FF3F81460BD0E3
:1016A00000250DF1080B05E0D4E901211BF8050028
:1016B00090476D1C4D45F7D308F10100B0428046BC
:1016C000E4DB206A384420622046FFF7EFFEBDE8E5
:1016D000FF9F00001A1700002DE9F0418046D21D3F
:1016E00022F007020025D2E90002F52914A612D043
:1016F000002A06DA0023D0EB030063EB020211A6F6
:1017000008E0D8F800108B0701D50FA602E04907C2
:1017100001D50EA601251146002408F1240704E096
:1017200000F098F830323A55641C50EA0102F7D1C3
:101730002B46324621464046BDE8F04100F0CFB886
:10174000000000002D0000002B0000002000000021
:1017500030B4002100F1240408E002F00705D208AB
:10176000303542EA4372DB086554491C52EA0305EE
:10177000F3D10468002310A2250708D504F0200443
:101780000C4304D0C46901230CA2641EC46130BCA4
:1017900000F0A5B810B5044621461068FFF7A0FE7A
:1017A00002462046BDE810400023D1E7D21D22F0BA
:1017B0000701D1E90023CBE7000000003000000062
:1017C000F0B40D460188090502D5214C7C4402E0A5
:1017D0001F4C7C440E34002100F1240608E002F086
:1017E0000F071209E75D42EA03721B097754491C8F
:1017F00052EA0307F3D102780023120704D5702DB3
:1018000006D009B1022311342246F0BC00F067B8BB
:1018100001231034F8E770B504460D4621461068E0
:10182000FFF75EFE024629462046BDE870400023D1
:10183000C6E7D21D22F00703D3E90023C0E70368FF
:10184000126843F0200303600823C3610023B7E755
:101850008015000030B5B0F10A024FEA900E71F128
:1018600000034EEA817EB0EB0E0061EB91014FEA7E
:10187000101E4EEA017E10EB0E0041EB11114FEAF3
:10188000102E4EEA016E10EB0E0041EB11214FEAD3
:10189000104E4EEA014E10EB0E0041EB1141401884
:1018A00041F100014FEAD00040EA41704FEAD10116
:1018B00010EB80054FEA810444EA907444EB010484
:1018C0006D1944EB0404521BA3414FF0000348BFC1
:1018D0000A3200D530BD401C41F1000130BD2DE978
:1018E000F0470D4699469246044600F124080168E7
:1018F000880604D5E06921F01001216000E0012094
:10190000A84201DD471B00E00027A1697A1902EB1C
:101910000900081AA0612078C00602D42046FFF70B
:10192000AFFD002608E0D4E901211AF8060090472F
:10193000206A401C761C20624E45F4DB2078C006ED
:101940000AD52046FFF79CFD06E0D4E901213020AE
:101950009047206A401C2062381EA7F10107F4DC82
:1019600007E0D4E9012118F805009047206A401CDF
:101970002062281EA5F10105F3DC2046FFF796FD45
:101980002078000602D50220BDE8F0870120FBE7A1
:1019900070472DE9FF4F0C461E464FF0FF378BB0C6
:1019A000D2E90001DDF860800A908A46C1F30A5549
:1019B00005B93D46002108464FF00000BAF1000F7E
:1019C00000F4400005DA00EB80004FF4400101EA2A
:1019D00050004FEA9059B9F1010F00DDB9460A985D
:1019E00050EA4A000ED044F61050A5F2FF354543A8
:1019F0002F14B8F1000F1ED07542291E1EDDC9F14B
:101A000000021CE0B8F1010F4FF0000001D03021BE
:101A100003E0F24305E02154401CB042FBDB3046BA
:101A20000022002121540B99C1F80880C1E900204F
:101A30000FB0BDE8F08FBD1B6D1CDEE74A4600DA33
:101A4000694206A800F05AFA06AB93E8070003AB18
:101A500083E8070050460A9900F0C6FA8DE80700AF
:101A6000A0F500501F3800900398002D09DD42F2C8
:101A70001F014A46084403A90390684600F025FD6B
:101A800008E0A0F500504A461F3803A903906846B5
:101A900000F02FFD8DE807000004000C03D04FF08C
:101AA000FF30410800E01046B8F1000F03D00022DB
:101AB000009215461EE0751E05D4FFF7CBFE3032AE
:101AC00062556D1EF9D5B3460122084302D00022AB
:101AD0007F1C04E02078302801D100227F1E002ADC
:101AE000099786D01DE0112D07DAFFF7B3FE3032DB
:101AF00062556D1C50EA0102F5D1084302D00098EE
:101B0000C8B10EE00021681E05E0235C625C6354EE
:101B10002254401E491C8142F7DBAB46A81B401EE5
:101B20000990002004F80B000B98099AC0F808806F
:101B3000C0E9002B7CE711264FF0000859E72DE99A
:101B4000F04F88460446D21D22F0070191B0D1E93A
:101B50000001CDE90A0100F002FE02460B98C00F19
:101B600001D02D2007E02068810701D52B2002E05D
:101B7000202101EAC000032A099001D0072A05DBD1
:101B800003464146204600F079F909E120788006B5
:101B900001D5E06900E00620B8F1650F814606D066
:101BA000B8F1660F18D0B8F1670F70D131E000209E
:101BB000B9F1110F009001DB112301E009F10103DC
:101BC0000AAA01A90CA8FFF7E4FEDDE90C700026C3
:101BD00009F10105834647E001204B4600904FF094
:101BE00000470AAA01A90CA8FFF7D3FEDDE90DB052
:101BF0000C995D46002610B909F101000D18B9EBEA
:101C0000050003D4C0F1FF3609F10105A5EB090079
:101C10002BE0B9F1010F01DA4FF001090020B9F111
:101C2000110F0090484601DD112300E003460AAA87
:101C300001A90CA8FFF7ADFEDDE90C704D460026AA
:101C40008346207800070AD4AB4500DA5D4601A838
:101C5000012D04DD411911F8011C302907D04F4531
:101C600002DA17F1040F04DA012082460FE06D1E3C
:101C7000EEE7002F02DCED1B3E4403E0781CA84297
:101C800000DD7D1CB81B00F1010A4FF000472078F1
:101C9000000703D4AA4501DB4FF0FF3A0021B7F15A
:101CA000004F0DF143088DF8431022D002202B2362
:101CB000002F01DA7F422D234FF00A0C011EA0F104
:101CC000010000DC47B197FBFCF10CFB11720F46E1
:101CD000303208F8012DF1E7A8F1010003702188E6
:101CE000090501D5452100E06521A0F1010800F8B2
:101CF000011C09980FA9A1EB0807FF1D00B10120E5
:101D0000411901EBEA70A1693844081A401EA0612C
:101D10002078C00602D42046FFF7B2FB099828B10C
:101D2000D4E901219047206A401C20622078C00637
:101D300022D52046FFF7A4FB1EE0002E04DBB345AE
:101D400002DD01A8805D00E03020D4E90121904748
:101D5000206A401C2062761CAAF101005FEA000A9A
:101D60000AD100F087F8C0680168405CD4E901211D
:101D70009047206A401C2062281EA5F10105DCDC8A
:101D800007E0D4E9012118F8010B9047206A401CB4
:101D90002062381EA7F10107F3DC2046FFF786FB1F
:101DA000022011B045E610B5436913B1AFF30080CE
:101DB00001E0FFF733FC012010BD128800F124017F
:101DC00082840022C2840122EDE711684FF0FF32C5
:101DD000E9E7007B00F08000704770B516460C46BE
:101DE000054600F03FF8036893F80101012806D08A
:101DF000FF2C0FD8185D68B101202C7070BDD3F88E
:101E000007013246214603442846BDE8704003F2EC
:101E1000071318474FF0FF3070BD754600F0E0F82B
:101E2000AE4605006946534620F00700854618B0C7
:101E300020B5FEF733FABDE820404FF000064FF022
:101E400000074FF000084FF0000B21F00701AC46EF
:101E5000ACE8C009ACE8C009ACE8C009ACE8C0090E
:101E60008D46704710B500F005F8001D10BD00BF8D
:101E70005109000000487047880200202DE9F04118
:101E80001F46044603260168072A01F4006004DBAC
:101E900008B116A505E016A503E008B115A500E0F8
:101EA00015A521F010002060A069C01EA0610FB12F
:101EB000401EA0612046FFF7E3FA4FB1D4E90121AB
:101EC00038469047206A401C2062C01C206206E011
:101ED000206AFAE7D4E9012115F8010B9047761E34
:101EE000F8D22046FFF7E2FABDE8F0814E414E00FD
:101EF0006E616E00494E4600696E66002DE9F0473E
:101F0000814616468AB0324878440DC88DE80D00E7
:101F10002F487844801C03AC0DC884E80D0041F6BE
:101F20009B303722014491FBF2F0A0F1800502FBC7
:101F300010141B3C02D56442012000E00020DFF8B1
:101F400090A080460027FA44AAF1BA0A0DE0E00703
:101F500009D03246684607EB47010AEB810100F0E1
:101F6000C8FA8DE8070064107F1C002CEFD1184FD1
:101F70007F44A83F18E0E80714D007EB04100DF1E8
:101F8000180A90E80E008AE80E00C068F04201D1FD
:101F900098190890324606A903A800F0AAFA03ABE4
:101FA00083E807006D10641C002DE4D132466946B9
:101FB000B8F1000F03A802D000F087FA01E000F0AA
:101FC00098FAC9E90001C9F808200AB0BDE8F0870D
:101FD000E80E00000446AFF300802046FEF745F906
:101FE00000487047680200205FEA400C08BF91F08B
:101FF000000F4FEA8C234FEAC12243EA51514FEAC6
:102000001C5018BF00F5F0404FEA300018BF41F0F7
:1020100000415FEA6C5C00F02980BCF1FF3F08BF23
:1020200040F080407047130C06BF12044FF0100CB4
:102030004FF0000C130E04BF12020CF1080C130F2A
:1020400004BF12010CF1040C930F04BF92000CF1B9
:10205000020CD30F04BF52000CF1010C11464FF0DB
:102060000002A0F11F00A0EB0C00704711F0004F20
:1020700008BF704731F000413FF4D5AF0B0C06BFED
:1020800009044FF0100C4FF0000C0B0E04BF0902B6
:102090000CF1080C0B0F04BF09010CF1040C8B0FA1
:1020A00004BF89000CF1020CCB0F04BF49000CF1F6
:1020B000010CCCF12003A0EB0C0022FA03F302FA8E
:1020C0000CF241EA030100F10100704720F07F4C5F
:1020D00080EA030023F07F47ACEB070303F57C5352
:1020E00000F0004003F1FF032DE980494FEA154B52
:1020F00009B44FEA144325EA0B4E24EA03480FF2D1
:10210000042606EB132749083E785FEA320203FBF8
:102110000667C7F5000707FB06F64FEA54374FEA94
:10212000D64606F1020607FB066CCCF1005C4FEACE
:102130001C472CEA074C07FB06F40CFB06F504EBE6
:1021400015464FEA961634BF00204FF000404FEA84
:10215000D13706FB07FC4FEA1C4C0CFB0BF7D21BDC
:1021600003FB0CF761EB07010CFB0EF7B0EB07402C
:1021700072EB17420CFB08F734BFA2EB0742B2EB3D
:10218000074261EB17414FEA0C444FEA910706FB07
:1021900007FC4FEA1C4C0CFB0BF7B0EBC74072EB93
:1021A000573203FB0CF734BFA2EBC742B2EBC74276
:1021B00061EB57310CFB0EF7B0EBC70072EB5772B7
:1021C0000CFB08F734BFA2EBC702B2EBC70261EB0E
:1021D0005771039F4FEA816141EA921104EBCC04ED
:1021E0004FEAD1374FEA826206FB07FC42EA9012BF
:1021F0004FEA80604FEA1C4C0CFB0BF7D21B03FB31
:102200000CF761EB07010CFB0EF7B0EB074072EB2C
:1022100017420CFB08F734BFA2EB0742B2EB0742B0
:1022200061EB17414FEA8C554FEA910704EB9C2470
:1022300006FB07FC4FEA1C4C0CFB0BF7B0EBC7404E
:1022400072EB573203FB0CF734BFA2EBC742B2EB81
:10225000C74261EB57310CFB0EF7B0EBC70072EBD6
:1022600057720CFB08F734BFA2EBC702B2EBC702F0
:1022700061EB577115EB4C254FEA816141EA9211F0
:102280004FEA82624FEAD13742EA901206FB07FC1E
:1022900044F100044FEA80604FEA1C4C0CFB0BF742
:1022A000D21B03FB0CF761EB07010CFB0EF7B0EB45
:1022B000074072EB17420CFB08F734BFA2EB074252
:1022C000B2EB074261EB174115EB1C154FEA813168
:1022D00041EA92414FEA823242EA90424FEA80302C
:1022E0004FEA0C7644F1000448EA03434EEA0B48F7
:1022F0004FF0000EB2EB080C71EB030724BF6246EF
:1023000039464EEB0E0E4FF0000B0018524149417A
:102310004BEB0B0BB2EB080C71EB03077BF1000BE3
:1023200024BF624639464EEB0E0E4FF0000B0018EC
:10233000524149414BEB0B0BB2EB080C71EB03071D
:102340007BF1000B24BF624639464EEB0E0E51EA7C
:10235000020718BF46F0010616EB0E7655F1000293
:1023600054F1000103D5BDE88901BDE80088BDE84E
:102370008901B619BDE80048524141EB0101A3F1C2
:102380000103704780807F7E7D7C7B7A79787776C9
:1023900076757473727171706F6E6E6D6C6C6B6A42
:1023A0006A696868676666656464636362616160E0
:1023B000605F5F5E5E5D5D5C5C5B5B5A5A5959585D
:1023C00058575756565555555454535352525251C7
:1023D000515050504F4F4F4E4E4D4D4D4C4C4C4B1D
:1023E0004B4B4A4A4A494949484848474747474664
:1023F00046464545454444444443434343424242A0
:1024000042414141002B26D4770021D01CB54FEA30
:10241000370703B44FF010004FF010014FF00000E9
:102420000FBC0BF1010BBDE81040BBF1010F08BF61
:102430005FEA170722BF12F1010211F101014FF00B
:10244000004143F1000300F0004043EA0000704700
:10245000F9D35708DAE746EA064613F1400F4FEA88
:1024600016461FDD13F1200FDFBF16430A46002179
:1024700020335B42C8D0C3F1200746EA064602FA81
:1024800007F74FEA164646EA0706C3F1200722FA85
:1024900003F201FA07F721FA03F14FF0000342EAD1
:1024A0000702B1E746EA020646EA06464FEA164642
:1024B00046EA0106BCBF46EA0646360C4FF000036A
:1024C0004FF000024FF000019EE72DE9C04893460F
:1024D00030B491E8380007C831EA400C48BF34EA0C
:1024E000430C03D5FFF7F2FDFFF78CFFF0BCBDE80E
:1024F00000882DE9C048934630B491E8380007C8F9
:1025000010F0804F08BF13F0804F03D100F005F8A2
:10251000FFF778FFF0BCBDE8008820F07F4780EA35
:10252000030023F07F4C07EB0C03A3F57C5300F072
:102530000040A3F1FE0392F0000F00F0B38095F08D
:10254000000F00F077802DE901494FEA11404FEA72
:10255000144621EA004800FB06FC24EA064708FB73
:1025600006F607FB08F800FB07F718EB06484CEBEC
:10257000164C4FEA124B18EB07484FEA15464CEB46
:10258000174022EA0B4E0BFB06FC25EA06470EFB22
:1025900006F607FB0EFE0BFB07F71EEB064E4CEB99
:1025A000164C4FF000061EEB074E4CEB174B18EB8A
:1025B0000B0840F1000018EB0E0B58EB000840F13F
:1025C00000008F1A4FF000013CBFC943661B14BFC7
:1025D000B5EB040C00213CBFC943F61B4FEA17447E
:1025E0004EEA8E0E27EA04454FEA1C4704FB0762B9
:1025F0002CEA074C05FB07F70CFB05F604FB0CFC6B
:1026000016EB074642EB174216EB0C4642EB1C4218
:102610001BEB060658EB0202414146EA9E0601D535
:10262000BDE80189B619524141EB0101A3F1010353
:10263000BDE801894FEA14454FEA114724EA0546EF
:1026400021EA074C05FB07F406FB07F70CFB06F134
:1026500005FB0CFC11EB074144EB17444FEA124712
:1026600011EB0C4144EB1C4422EA074C05FB07F23A
:1026700006FB07F70CFB06F605FB0CFC16EB074602
:1026800042EB174216EB0C4642EB1C456A1854F11C
:10269000000148BF7047B619524141EB0101A3F157
:1026A0000103704795F0000F37D04FEA11424FEA0F
:1026B000144721EA024624EA074C02FB07F106FB15
:1026C00007F70CFB06F402FB0CFC14EB074441EB90
:1026D00017414FEA154714EB0C4441EB1C4125EA26
:1026E000074C02FB07F506FB07F70CFB06F602FB9F
:1026F0000CFC16EB074645EB174516EB0C4645EB75
:102700001C42121951F1000148BF7047B6195241DD
:1027100041EB0101A3F1010370474FEA14454FEA71
:10272000114724EA054621EA074C05FB07F106FBA1
:1027300007F70CFB06F24FF0000605FB0CFC12EB52
:10274000074241EB174112EB0C4251EB1C4148BFD1
:102750007047921841EB0101A3F101037047490052
:1027600050EAC12018BF04204A0D18BF40F00100F4
:1027700040F2FF72B2EB515F08BF40F00200012847
:1027800008BF0520704730380A2801D20120704761
:102790000020704710B500290AD00878002807D01B
:1027A00005487844FEF728FE002801D0002010BD1F
:1027B0000248784410BD00008A060000820600002E
:1027C00010B500290AD00878002807D005487844B9
:1027D000FEF712FE002801D0002010BD0248784408
:1027E00010BD00007A0600007206000090EA010F9A
:1027F00048BF81F0004100F12E82421A3CBF801A8E
:1028000089184FEAD0524FF07F4C1CEA410FA2EBDF
:10281000D15318BF9CEA026F00F03B804FF0004C90
:102820004CEA00204CEA012121FA03FC10EB0C0CCD
:102830001ED202F1FF325FEA1C2040EBC25038BFCB
:1028400070471CF07F0F4FEA400C18BFBCF17F4F60
:1028500038BF7047C3F12003994008BF20F0010042
:10286000BCF17F4F38BF7047A0F1C04000F0DDB928
:102870004FEA3C00000A40EBC25028BF1CF0FF0F9B
:102880004FEA400CE6D018BFBCF17F4F38BF70470D
:10289000EAE79CEA026F05D010EA5C0F08BF00F07F
:1028A0000040704710B500F07AF900BF64FBBE3EEF
:1028B0004FF47F0C1CEAD0121EBF1CEAD11392EA1F
:1028C0000C0F93EA0C0F00F0858090EA010F48BFCF
:1028D00042F4807240F4000C41F400002CF07F417F
:1028E00020F07F4000B58142A2EB03020FF2081CEA
:1028F000ACEB504EC0F100009EF800E04FEA4E0EE7
:1029000000FB0EFC38BF49004FEA2C1C02F5FA020E
:102910000CFB0EF34FEACE1E4FEA112C4FEAC121F9
:102920000EEB635E42EB22420EFB0CFC4FEA1C53A3
:1029300000FB03114FEA112C4FEA01310EFB0CFC96
:102940004FEADC4C00FB0C11C14228BF09184CEBCC
:1029500003335DF804EB10EB410143EBC250B2F5D9
:102960007C0F38BF704729D512F0F00F1CBF00F163
:10297000C04000F0004070470081828384858687D4
:1029800088898B8C8D8E8F919293959697999A9C2E
:102990009D9FA0A2A3A5A7A8AAACAEB0B2B3B5B79D
:1029A000B9BCBEC0C2C5C7C9CCCED1D4D7D9DCDF73
:1029B000E2E6E9ECF0F3F7FAFE0000004FEA400C23
:1029C0000CF1807CBCF17E4F28BF7047B0F1C04055
:1029D00000F02BB990EA010F0CEAD11348BF42F482
:1029E0008072624538BF634507D213F47F0F16D05B
:1029F00080EA010000F00040704710B500F0CFF809
:102A0000097EFC3E00F005B880EA010000F00040BD
:102A1000704780EA010000F0004000F006B912F4AF
:102A20007F0F04BF0248704780EA010000F0FDB844
:102A30000000C07FC10DD1F19E0206DB4FEA0023EA
:102A400043F0004323FA02F07047004207D54FEAF3
:102A50004001B1F1FE4F02D24FF00000704710B5B7
:102A600000F09DF849922480002070476FEA200012
:102A700070470000B0FA80F310FA03F2C3F19D032F
:102A80000AD0D90501EB1220530638BF704700F178
:102A9000010008BF20F00100704700004FF47F0CD8
:102AA0001CEAD0121EBF1CEAD11392EA0C0F93EA63
:102AB0000C0F00F0478090EA010F48BF42F480728B
:102AC0004FF0004C4CEA00204CEA012102EB0302DB
:102AD000A0FB0113A2F50002002918BF43F0010377
:102AE0005B0028BF4FEA330342EB22425FEA132C1C
:102AF0004CEBC2502EBFBCEB436FB2F57C0F70475E
:102B00004FEA036CBCF1004F08BF20F00100B2F5A2
:102B10007C0F38BF70470BD582F0FF0212F5803F63
:102B2000C8BF704700F1C040D8BF00F000407047F8
:102B300000F5000C5FEA4C0C48BF7047B0F1C04094
:102B400000F073B890EA010F0CEAD11348BF42F4C9
:102B50008072624538BF634504D280EA010000F00C
:102B60000040704710B500F01AF800BF8900013E20
:102B700000F007B800F009B85FEA410C5FEA1C6C8E
:102B800008D080EA010000F050B85FEA400C5FEA2C
:102B90001C6CF6D14FF00040A0F5800070470EF19C
:102BA000020E2EF0030E5EF8044B244204D44FEACA
:102BB0004102B2F17F4F11D84FEA4003B3F17F4F8A
:102BC0000CD80ED14FEAD07CB2F17F4F0CEB4C0CFD
:102BD0000CF1020C08BF4CEBD17C04E04FF0080C68
:102BE00001E04FEAD17C0CEB4C0324FA03F404F02F
:102BF0000704B4F1040C06D20EEB840CBDE81040BF
:102C00004CF0010C6047DFE80CF0070802024FF0BF
:102C10000040A0F5800010BD0846420018BFD2F168
:102C2000807288BF00F0004010BDFF2141EAD05003
:102C3000C005704780F0004090EA010F7FF5DDADE0
:102C400081F0004100F007B890EA010F48BF81F021
:102C500000413FF5D2AD421A04D882F00042A0EB09
:102C6000020011444FEAD0524FF07F4C1CEA410F52
:102C7000A2EBD15318BF9CEA026F4AD04FF0004C30
:102C80004CEA00204CEA012121FA03FCB0EB0C0CC9
:102C90000FD412F0FE0F36D05FEA4C001DD50012A3
:102CA00040EBC25038BF70471CF03F0F18BF704751
:102CB0000BE0A2F101025FEA1C2040EBC25038BFDA
:102CC00070471CF07F0F18BF7047C3F12003994075
:102CD00014BF401E20F00100704780084FEA122305
:102CE00008BF7047B0FA80FCA2EB0C02CCF1280CB4
:102CF00060FA0CF093EA122F04BF00EBC250704749
:102D00004FEAC3707047130A5FEADC1008BF7047D0
:102D1000F6E79CEA026F04D010EA5C0F08BF0020BF
:102D2000704710B5FFF73BFF40DFF63E81F00040F3
:102D30007047FEF704BF0400000800000000000018
:102D40000002000100001000000000000000000070
:102D500030313233343536373839414243444546D1
:102D600040305800303132333435363738396162CB
:102D7000636465664030780002400000000000A0F7
:102D80000000000005400000000000C80000000036
:102D90000C4000000000409C0000000019400000B2
:102DA0000020BCBE0000000034400000BFC91B8EE4
:102DB00000000004B5400000504BCFD06607E2CFC2
:102DC000010000006C4100003E8251AADFEEA734F2
:102DD00001000000D9420000DCB5A0E23A301F97A4
:102DE000FFFFFFFFB4450000FD25A0C8E9A3C14FC8
:102DF000FFFFFFFFFF3F0000000000800000000019
:102E0000FF3F00000000008000000000582F000875
:102E100000000020100000006C010008682F00086E
:102E200010000020B8080000880100081C00000005
:102E300043000000F8FFFFFF0C0000000E00000040
:102E40000F0000002E0000001001000043000000F1
:102E5000F8FFFFFF004040404040404040404141BB
:102E6000414141404040404040404040404040405F
:102E700040404040400502020202020202020202F9
:102E800002020202022020202020202020202002F6
:102E90000202020202029090909090901010101086
:102EA0001010101010101010101010101010101022
:102EB00002020202020288888888888808080808B6
:102EC0000808080808080808080808080808080882
:102ED00002020202400000000000000000000000AA
:102EE00000000000000000000000000000000000E2
:102EF00000000000000000000000000000000000D2
:102F000000000000000000000000000000000000C1
:102F100000000000000000000000000000000000B1
:102F200000000000000000000000000000000000A1
:102F30000000000000000000000000000000000091
:102F40000000000000000000000000000000000081
:102F50000000000000000000000000000000000071
:082F6000000001000000000068
:0400000508000131BD
:00000001FF
